:100000000C942A000C943C000C943C000C943C0092
:100010000C943C000C943C000C943C000C943C0070
:100020000C943C000C943C000C94AC030C943C00ED
:100030000C943C000C943C000C943C000C943C0050
:100040000C943C000C943C000C943C000C943C0040
:100050000C943C0011241FBECFE5D8E0DEBFCDBF1D
:1000600010E0A0E6B0E001C01D92A536B107E1F7AF
:100070000E94F5030C9434040C940000DF93CF939A
:10008000CDB7DEB727970FB6F894DEBF0FBECDBF52
:1000900089836A834B838B81882309F075C08981AA
:1000A000282F30E03F832E838E819F8182309105FF
:1000B00061F12E813F812330310534F48E819F819F
:1000C0008130910569F0D3C02E813F812330310505
:1000D00089F18E819F818430910509F440C0C7C0A9
:1000E000AAE3B0E0EAE3F0E08081482F8A81282F7C
:1000F00030E081E090E0022E02C0880F991F0A9440
:10010000E2F7809584238C93B2C0A7E3B0E0E7E3E5
:10011000F0E08081482F8A81282F30E081E090E054
:10012000022E02C0880F991F0A94E2F7809584235B
:100130008C939DC0A4E3B0E0E4E3F0E08081482F1D
:100140008A81282F30E081E090E0022E02C0880FE3
:10015000991F0A94E2F7809584238C9388C0A1E3C9
:10016000B0E0E1E3F0E08081482F8A81282F30E081
:1001700081E090E0022E02C0880F991F0A94E2F7F6
:10018000809584238C9373C08B81813009F06FC07C
:100190008981282F30E03D832C838C819D818230A2
:1001A000910551F12C813D812330310534F48C814E
:1001B0009D818130910561F05AC02C813D812330B1
:1001C000310571F18C819D8184309105E9F14FC039
:1001D000AAE3B0E0EAE3F0E08081482F8A81282F8B
:1001E00030E081E090E0022E02C0880F991F0A944F
:1001F000E2F7842B8C933BC0A7E3B0E0E7E3F0E0A9
:100200008081482F8A81282F30E081E090E0022E03
:1002100002C0880F991F0A94E2F7842B8C9327C0A1
:10022000A4E3B0E0E4E3F0E08081482F8A81282F46
:1002300030E081E090E0022E02C0880F991F0A94FE
:10024000E2F7842B8C9313C0A1E3B0E0E1E3F0E08C
:100250008081482F8A81282F30E081E090E0022EB3
:1002600002C0880F991F0A94E2F7842B8C9327967B
:100270000FB6F894DEBF0FBECDBFCF91DF910895CA
:10028000DF93CF93CDB7DEB727970FB6F894DEBFD5
:100290000FBECDBF89836A834B838B81813009F088
:1002A00070C08981282F30E03F832E838E819F810B
:1002B0008230910551F12E813F812330310534F494
:1002C0008E819F818130910561F0D3C02E813F8165
:1002D0002330310571F18E819F8184309105E9F1E0
:1002E000C8C0ABE3B0E0EBE3F0E08081482F8A8147
:1002F000282F30E081E090E0022E02C0880F991F85
:100300000A94E2F7842B8C93B4C0A8E3B0E0E8E34E
:10031000F0E08081482F8A81282F30E081E090E052
:10032000022E02C0880F991F0A94E2F7842B8C9347
:10033000A0C0A5E3B0E0E5E3F0E08081482F8A812A
:10034000282F30E081E090E0022E02C0880F991F34
:100350000A94E2F7842B8C938CC0A2E3B0E0E2E332
:10036000F0E08081482F8A81282F30E081E090E002
:10037000022E02C0880F991F0A94E2F7842B8C93F7
:1003800078C08B81882309F074C08981282F30E0E0
:100390003D832C838C819D818230910561F12C817C
:1003A0003D812330310534F48C819D81813091056C
:1003B00069F05FC02C813D812330310589F18C814A
:1003C0009D818430910509F440C053C0ABE3B0E097
:1003D000EBE3F0E08081482F8A81282F30E081E034
:1003E00090E0022E02C0880F991F0A94E2F78095D0
:1003F00084238C933EC0A8E3B0E0E8E3F0E0808182
:10040000482F8A81282F30E081E090E0022E02C040
:10041000880F991F0A94E2F7809584238C9329C052
:10042000A5E3B0E0E5E3F0E08081482F8A81282F42
:1004300030E081E090E0022E02C0880F991F0A94FC
:10044000E2F7809584238C9314C0A2E3B0E0E2E34A
:10045000F0E08081482F8A81282F30E081E090E011
:10046000022E02C0880F991F0A94E2F78095842318
:100470008C9327960FB6F894DEBF0FBECDBFCF91F9
:10048000DF910895DF93CF9300D000D0CDB7DEB7D2
:1004900089836A838981282F30E03C832B838B8179
:1004A0009C8182309105D9F02B813C81233031052C
:1004B00034F48B819C818130910561F01EC02B81C9
:1004C0003C812330310581F08B819C818430910502
:1004D00081F013C0EAE3F0E08A8180830EC0E7E395
:1004E000F0E08A81808309C0E4E3F0E08A818083C0
:1004F00004C0E1E3F0E08A8180830F900F900F90B9
:100500000F90CF91DF910895DF93CF9300D000D06B
:10051000CDB7DEB789836A838981282F30E03C8399
:100520002B838B819C8182309105D9F02B813C817A
:100530002330310534F48B819C818130910561F049
:100540001EC02B813C812330310581F08B819C8141
:100550008430910581F013C0EBE3F0E08A81808361
:100560000EC0E8E3F0E08A81808309C0E5E3F0E0B3
:100570008A81808304C0E2E3F0E08A8180830F9067
:100580000F900F900F90CF91DF910895DF93CF934D
:1005900000D000D00F92CDB7DEB78A836B838A81FB
:1005A000282F30E03D832C834C815D814230510502
:1005B00041F18C819D818330910534F42C813D8102
:1005C0002130310561F052C04C815D8143305105CD
:1005D00051F18C819D8184309105B9F147C0E9E3E7
:1005E000F0E08081282F30E08B81882F90E0A901F6
:1005F00002C0559547958A95E2F7CA0181708983B3
:1006000035C0E6E3F0E08081282F30E08B81882F31
:1006100090E0A90102C0559547958A95E2F7CA0175
:100620008170898323C0E3E3F0E08081282F30E0EC
:100630008B81882F90E0A90102C0559547958A9536
:10064000E2F7CA018170898311C0E0E3F0E08081A4
:10065000282F30E08B81882F90E0A90102C05595AA
:1006600047958A95E2F7CA018170898389810F9045
:100670000F900F900F900F90CF91DF910895DF931F
:10068000CF93CDB7DEB7AFE5B0E0EFE5F0E0808126
:1006900080688C93CF91DF910895DF93CF93CDB78E
:1006A000DEB7AFE5B0E0EFE5F0E080818F778C93C7
:1006B000CF91DF910895DF93CF93CDB7DEB7A3E558
:1006C000B0E0E3E5F0E0808188608C93A3E5B0E0E2
:1006D000E3E5F0E080818F7B8C93A3E5B0E0E3E578
:1006E000F0E080818F7E8C93A3E5B0E0E3E5F0E05D
:1006F00080818F7D8C93A3E5B0E0E3E5F0E080811D
:100700008E7F8C93A3E5B0E0E3E5F0E0808182602A
:100710008C93A3E5B0E0E3E5F0E080818B7F8C93E0
:10072000A9E5B0E0E9E5F0E0808182608C93CF91AB
:10073000DF910895DF93CF9300D0CDB7DEB79A83D2
:10074000898389819A8190936400809363000F90DC
:100750000F90CF91DF9108951F920F920FB60F92D5
:1007600011242F933F934F935F936F937F938F93B6
:100770009F93AF93BF93EF93FF93DF93CF93CDB747
:10078000DEB7E0916300F09164000995CF91DF91AD
:10079000FF91EF91BF91AF919F918F917F916F9159
:1007A0005F914F913F912F910F900FBE0F901F902F
:1007B0001895DF93CF930F92CDB7DEB78983ECE521
:1007C000F0E0898180830F90CF91DF910895DF93CE
:1007D000CF930F92CDB7DEB78983E2E5F0E0898150
:1007E00080830F90CF91DF910895DF93CF93CDB7A2
:1007F000DEB781E060E041E00E943E000E943F03DE
:100800000E945B038AE094E00E949A038AEF0E94B0
:10081000D903FFCFDF93CF93CDB7DEB780916100CF
:10082000909162000196909362008093610011C0E4
:100830009091600081E08927809360009091600032
:1008400081E060E0492F0E94400110926200109206
:10085000610080916100909162002FE0803A9207E0
:0C08600039F3CF91DF910895F894FFCF99
:00000001FF
